:100000000C943B000C9458000C9458000C9458002D
:100010000C9458000C9458000C9458000C94580000
:100020000C9458000C9458000C9458000C945800F0
:100030000C940D040C9437040C9458000C945E043A
:100040000C9458000C9458000C9458000C945800D0
:100050000C945800F9012A025B028C02BD02EE02E8
:100060001F0350038103AB03B703C303CF03DB03B9
:10007000E703F303FF0311241FBECFE5D8E0DEBF83
:10008000CDBF10E0A0E6B0E0EAE1F9E002C00590E3
:100090000D92A037B107D9F720E0A0E7B0E001C08A
:1000A0001D92A637B207E1F70E94E2010C948B047F
:1000B0000C9400001F93CF93DF93C2E7D0E081E060
:1000C000888312E01983BE0186E390E00E94E90173
:1000D00018831983BE0186E390E00E94E90183E062
:1000E00088831983BE0186E390E00E94E90184E0E1
:1000F00088831983BE0189E390E00E94E90185E0CD
:1001000088831983BE0189E390E00E94E90186E0BB
:1001100088831983BE0189E390E00E94E90187E0AA
:1001200088831983BE0189E390E00E94E90140E0E1
:1001300063E086E390E00E949E0340E061E086E396
:1001400090E00E949E0340E062E086E390E00E941F
:100150009E03DF91CF911F91089541E063E086E314
:1001600090E00E949E0383EF91E00197F1F700C0B9
:10017000000040E063E086E390E00E949E03089563
:10018000CF93C82F84FB442740F964E089E390E0D3
:100190000E949E03C5FB442740F965E089E390E097
:1001A0000E949E03C6FB442740F966E089E390E085
:1001B0000E949E034C2F441F4427441F67E089E39D
:1001C00090E00E949E0340E062E086E390E00E949F
:1001D0009E0340E061E086E390E00E949E030E945F
:1001E000AD004C2F417064E089E390E00E949E03D3
:1001F000C1FB442740F965E089E390E00E949E033B
:10020000C2FB442740F966E089E390E00E949E0328
:10021000C3FB442740F967E089E390E00E949E0316
:1002200040E062E086E390E00E949E0340E061E0EF
:1002300086E390E00E949E030E94AD00CF91089556
:1002400081E00E94C0000895CF93DF93C82FD62F7E
:10025000813031F4603120F480E8860F0E94C000C4
:10026000C23031F4D03120F480EC8D0F0E94C000F8
:10027000DF91CF91089587E893E10197F1F700C0EE
:1002800000000E945A0085EA9EE00197F1F700C045
:10029000000082E00E94C00088E20E94C00086E068
:1002A0000E94C00080E80E94C0008FE00E94C00051
:1002B0000895CF93C82F84FB442740F964E089E375
:1002C00090E00E949E03C5FB442740F965E089E366
:1002D00090E00E949E03C6FB442740F966E089E354
:1002E00090E00E949E034C2F441F4427441F67E068
:1002F00089E390E00E949E0340E062E086E390E0A4
:100300000E949E0341E061E086E390E00E949E032C
:100310000E94AD004C2F417064E089E390E00E94A0
:100320009E03C1FB442740F965E089E390E00E9409
:100330009E03C2FB442740F966E089E390E00E94F7
:100340009E03C3FB442740F967E089E390E00E94E5
:100350009E0340E062E086E390E00E949E0341E05D
:1003600061E086E390E00E949E030E94AD00CF9181
:1003700008950F931F93CF93DF938C01C0E0D0E0DB
:1003800018C021960F5F1F4F0E945901C031D1053F
:1003900029F460E082E00E9424010BC0C032D10544
:1003A00041F40E94200160E081E00E942401C0E04D
:1003B000D0E0F80180818111E4CFDF91CF911F91CE
:1003C0000F9108950E943B0180E690E00E94B901E0
:1003D000FFCFCF93DF93DC01EB01E8814E2F50E09C
:1003E0004930510508F0A7C1FA01E65DFF4F0C94B2
:1003F00085048981813091F018F08230E9F09BC149
:1004000011968C9111978E7F11968C93119712965D
:100410008C9112978E7F12968C938DC111968C9130
:1004200011978E7F11968C93119712968C9112973B
:10043000816012968C937FC111968C911197816087
:1004400011968C93119712968C9112978E7F12961B
:100450008C9371C18981813091F018F08230E9F07C
:100460006AC111968C9111978D7F11968C9311977B
:1004700012968C9112978D7F12968C935CC1119677
:100480008C9111978D7F11968C93119712968C9168
:100490001297826012968C934EC111968C9111978F
:1004A000826011968C93119712968C9112978D7F82
:1004B00012968C9340C18981813091F018F082307E
:1004C000E9F039C111968C9111978B7F11968C931D
:1004D000119712968C9112978B7F12968C932BC149
:1004E00011968C9111978B7F11968C931197129680
:1004F0008C911297846012968C931DC111968C91E9
:100500001197846011968C93119712968C91129783
:100510008B7F12968C930FC18981813091F018F0F6
:100520008230E9F008C111968C911197877F11965E
:100530008C93119712968C911297877F12968C93B9
:10054000FAC011968C911197877F11968C93119711
:1005500012968C911297886012968C93ECC011962B
:100560008C911197886011968C93119712968C91AB
:100570001297877F12968C93DEC08981813091F02B
:1005800018F08230E9F0D7C011968C9111978F7EC8
:1005900011968C93119712968C9112978F7E1296CA
:1005A0008C93C9C011968C9111978F7E11968C9364
:1005B000119712968C911297806112968C93BBC002
:1005C00011968C911197806111968C9311971296C8
:1005D0008C9112978F7E12968C93ADC08981813059
:1005E00091F018F08230E9F0A6C011968C91119725
:1005F0008F7D11968C93119712968C9112978F7D07
:1006000012968C9398C011968C9111978F7D1196AC
:100610008C93119712968C911297806212968C93FC
:100620008AC011968C911197806211968C931197C4
:1006300012968C9112978F7D12968C937CC0898133
:10064000813091F018F08230E9F075C011968C91EC
:1006500011978F7B11968C93119712968C9112970C
:100660008F7B12968C9367C011968C9111978F7B1C
:1006700011968C93119712968C9112978064129612
:100680008C9359C011968C911197806411968C931C
:10069000119712968C9112978F7B12968C934BC068
:1006A0008981813091F018F08230E9F044C01196D0
:1006B0008C9111978F7711968C93119712968C913C
:1006C00012978F7712968C9336C011968C91119752
:1006D0008F7711968C93119712968C911297806850
:1006E00012968C9328C011968C9111978068119660
:1006F0008C93119712968C9112978F7712968C93F8
:100700001AC08981813051F018F0823071F013C025
:1007100011961C92119712961C920DC011961C9264
:1007200011978FEF12968C9306C08FEF11968C93D2
:10073000119712961C92DF91CF9108950F931F93FA
:10074000062F10E00830110508F064C0F801ED5CD8
:10075000FF4F0C948504442329F0FC012281216081
:10076000228358C0FC0122812E7F228353C0442360
:1007700029F0FC012281226022834CC0FC012281ED
:100780002D7F228347C0442329F0FC01228124606D
:10079000228340C0FC0122812B7F22833BC0442363
:1007A00029F0FC0122812860228334C0FC012281CF
:1007B000277F22832FC0442329F0FC01228120615E
:1007C000228328C0FC0122812F7E228323C0442360
:1007D00029F0FC012281206222831CC0FC012281BD
:1007E0002F7D228317C0442329F0FC01228120643D
:1007F000228310C0FC0122812F7B22830BC0442363
:1008000029F0FC0122812068228304C0FC0122819E
:100810002F7722831F910F9108951F920F920FB689
:100820000F9211242F933F934F935F936F937F9376
:100830008F939F93AF93BF93EF93FF93E0917000DB
:10084000F09171000084F185E02D0995FF91EF9101
:10085000BF91AF919F918F917F916F915F914F91D8
:100860003F912F910F900FBE0F901F9018951F92E0
:100870000F920FB60F9211242F933F934F935F93D4
:100880006F937F938F939F93AF93BF93EF93FF9358
:10089000E0917400F09175000995FF91EF91BF917F
:1008A000AF919F918F917F916F915F914F913F9108
:1008B0002F910F900FBE0F901F9018951F920F92BF
:1008C0000FB60F9211242F933F934F935F936F9323
:1008D0007F938F939F93AF93BF93EF93FF93E09199
:1008E0007400F09175000995FF91EF91BF91AF9160
:1008F0009F918F917F916F915F914F913F912F9138
:100900000F900FBE0F901F901895EE0FFF1F0590D0
:0A091000F491E02D0994F894FFCF54
:10091A004C6561726E20696E2044657074680000CF
:00000001FF
