:100000000C942A000C943C000C943C000C943C0092
:100010000C943C000C943C000C943C000C943C0070
:100020000C943C000C943C000C943C000C943C0060
:100030000C9483000C94AD000C943C000C94D40000
:100040000C943C000C943C000C943C000C943C0040
:100050000C943C0011241FBECFE5D8E0DEBFCDBF1D
:1000600020E0A0E6B0E001C01D92A436B207E1F79F
:100070000E9451000C94FB000C94000087B3806B2D
:1000800087BB81E58DB9089598B39F7E98BB8FB9E2
:10009000779BFECF6FB9779BFECF88B3806188BB1B
:1000A00008950E943E006FEF89E00E9444006FEFC8
:1000B0008AE00E94440067EF8BE00E94440061E008
:1000C0008CE00E944400D0E0C1E011C011E01D0F9F
:1000D0006D2F8C2F0E9444002FE58AEE90E0215076
:1000E00080409040E1F700C00000CF5FD12FC930C1
:1000F00068F3C1E005C060E08C2F0E944400CF5F30
:10010000C930C8F3E1CF1F920F920FB60F9211249E
:100110002F933F934F935F936F937F938F939F930F
:10012000AF93BF93EF93FF93E0916000F091610074
:100130000084F185E02D0995FF91EF91BF91AF917A
:100140009F918F917F916F915F914F913F912F91EF
:100150000F900FBE0F901F9018951F920F920FB621
:100160000F9211242F933F934F935F936F937F933D
:100170008F939F93AF93BF93EF93FF93E0916200B0
:10018000F09163000995FF91EF91BF91AF919F911D
:100190008F917F916F915F914F913F912F910F9030
:1001A0000FBE0F901F9018951F920F920FB60F92CF
:1001B00011242F933F934F935F936F937F938F936C
:1001C0009F93AF93BF93EF93FF93E0916200F09101
:1001D00063000995FF91EF91BF91AF919F918F912E
:1001E0007F916F915F914F913F912F910F900FBE33
:0A01F0000F901F901895F894FFCFB0
:00000001FF
