:100000000C942A000C94E0000C9409010C94320129
:100010000C943C000C943C000C943C000C943C0070
:100020000C943C000C943C000C943C000C943C0060
:100030000C943C000C943C000C943C000C943C0050
:100040000C943C000C943C000C943C000C943C0040
:100050000C943C0011241FBECFE5D8E0DEBFCDBF1D
:1000600020E0A0E6B0E001C01D92A636B207E1F79D
:100070000E945F000C945B010C940000959A2FEF96
:1000800089E698E1215080409040E1F700C00000EF
:100090000895969A2FEF89E698E12150804090408C
:1000A000E1F700C000000895979A2FEF89E698E1E4
:1000B000215080409040E1F700C00000089561E0C9
:1000C00080E00E9482006CE081E00E94820060E09B
:1000D00082E00E9482006EE370E080E00E94BD003A
:1000E00069E470E081E00E94BD0064E570E082E0B8
:1000F0000E94BD008D9A8E9A8F9A789495989698C2
:100100009798FCCF833078F5813071F018F0823009
:10011000C9F02BC0643058F585B7682B65BF8BB725
:1001200080648BBF80E00895862F8B7F883011F02C
:1001300081111FC085B7682B65BF8BB780688BBFE7
:1001400080E00895862F8F7BB1F48BB78F7D8BBFB6
:1001500084B7682B64BF8AB780628ABF8BB780621E
:100160008BBF80E0089581E0089580E0089581E0EC
:10017000089581E0089581E008958330D8F46115F1
:100180007105D1F0813051F018F0823069F016C05D
:10019000709361006093600080E008957093630045
:1001A0006093620080E0089570936500609364003E
:1001B00080E0089581E0089581E0089580E0089549
:1001C0001F920F920FB60F9211242F933F934F93CC
:1001D0005F936F937F938F939F93AF93BF93EF93AF
:1001E000FF93E0916000F0916100309709F009956C
:1001F000FF91EF91BF91AF919F918F917F916F91FF
:100200005F914F913F912F910F900FBE0F901F90D4
:1002100018951F920F920FB60F9211242F933F93B0
:100220004F935F936F937F938F939F93AF93BF93FE
:10023000EF93FF93E0916200F0916300309709F033
:100240000995FF91EF91BF91AF919F918F917F9110
:100250006F915F914F913F912F910F900FBE0F9033
:100260001F9018951F920F920FB60F9211242F9383
:100270003F934F935F936F937F938F939F93AF932E
:10028000BF93EF93FF93E0916400F0916500309786
:1002900009F00995FF91EF91BF91AF919F918F91D7
:1002A0007F916F915F914F913F912F910F900FBE72
:0A02B0000F901F901895F894FFCFEF
:00000001FF
