:100000000C942A000C9492000C9492000C94920090
:100010000C9492000C9492000C9492000C94920018
:100020000C9492000C9492000C9492000C94920008
:100030000C9492000C9492000C9492000C949200F8
:100040000C9492000C9492000C9492000C949200E8
:100050000C94920011241FBECFE5D8E0DEBFCDBFC7
:0C0060000E9436000C948700F894FFCF3B
:10006C008FEF8ABB84B38E7F84BB60E070E080E04E
:10007C0090E023B3422F417050E020FF10C0009756
:10008C0071F421E030E0062E02C0220F331F0A94D7
:10009C00E2F73BB3232B2BBB6F5F7F4F14C0452B79
:1000AC0091F08130910579F421E030E0062E02C008
:1000BC00220F331F0A94E2F7209530953BB323238C
:1000CC002BBB61507109009739F46830710521F42C
:1000DC0067E070E081E090E08130910541F46F3F82
:1000EC002FEF720721F460E070E080E090E03FEFCA
:1000FC00E0E722E03150E0402040E1F700C0000092
:02010C00B8CF6A
:10010E00EC010E9497000E949600CE010E9498007A
:06011E00CE010E949400D6
:040124000C94000037
:040128000E943400FD
:02012C00089534
:02012E00089532
:02013000089530
:00000001FF
