:100000000C942A000C943C000C943C000C943C0092
:100010000C943C000C943C000C943C000C943C0070
:100020000C943C000C943C000C943C000C943C0060
:100030000C945F000C9489000C943C000C94B0006C
:100040000C943C000C943C000C943C000C943C0040
:100050000C943C0011241FBECFE5D8E0DEBFCDBF1D
:1000600020E0A0E6B0E001C01D92A436B207E1F79F
:100070000E944B000C94D7000C94000087B3806B57
:1000800087BB87B38F7B87BB81E58DB908958FB917
:10009000779BFECF08958FEF8ABB0E943E00C0E0A1
:1000A0002FE38DE093E0215080409040E1F700C0C5
:1000B00000008C2F0E9447008BBBCF5FF1CF1F92B7
:1000C0000F920FB60F9211242F933F934F935F938C
:1000D0006F937F938F939F93AF93BF93EF93FF9310
:1000E000E0916000F09161000084F185E02D0995B8
:1000F000FF91EF91BF91AF919F918F917F916F9100
:100100005F914F913F912F910F900FBE0F901F90D5
:1001100018951F920F920FB60F9211242F933F93B1
:100120004F935F936F937F938F939F93AF93BF93FF
:10013000EF93FF93E0916200F09163000995FF91C6
:10014000EF91BF91AF919F918F917F916F915F914F
:100150004F913F912F910F900FBE0F901F901895C8
:100160001F920F920FB60F9211242F933F934F932C
:100170005F936F937F938F939F93AF93BF93EF930F
:10018000FF93E0916200F09163000995FF91EF9178
:10019000BF91AF919F918F917F916F915F914F919F
:1001A0003F912F910F900FBE0F901F901895F894CC
:0201B000FFCF7F
:00000001FF
