S018000041746D65676133325F447269766572732E737265631A
S11300000C942A000C943F000C943F000C943F0085
S11300100C943F000C943F000C943F000C943F0060
S11300200C943F000C943F000C943F000C943F0050
S11300300C943F000C943F000C943F000C943F0040
S11300400C943F000C943F000C943F000C943F0030
S11300500C943F0011241FBECFE5D8E0DEBFCDBF16
S113006010E0A0E6B0E0E6E9F5E002C005900D92EC
S1130070AC3AB107D9F70E94CB010C94C9020C9495
S113008000000F931F93CF930097C9F08C01C0E039
S113009081E006C0C8018C0F911D0E94B602CF5F9B
S11300A0C430C0F3C0E008C08C2F90E00496800FE9
S11300B0911F0E940702CF5FC630B0F301C080E0F9
S11300C0CF911F910F9108955F926F927F928F92BB
S11300D09F92AF92BF92CF92DF92EF92FF920F93D3
S11300E01F93CF93DF931F92CDB7DEB7198200978A
S11300F009F45EC06115710509F45CC05B017C0103
S1130100512C662463944FC060E0C701810F911D98
S11301100E944802682E1F5F01C010E01430A0F353
S1130120852C912C61E0C701880D991D0E9448021D
S113013083EC99E00197F1F700C00000712C2FC007
S1130140C72CD12C86010C5F1F4F0E0D1F1DBE0145
S11301506F5F7F4FC8010E949102682E89818130B0
S1130160D9F407C0BE016F5F7F4FC8010E9491029E
S1130170682E89818130B1F3C401880F991F880DDD
S1130180991D880F991F88579F4FFC01EC0DFD1D89
S11301908081F50180830FC0F50110827394F5E02E
S11301A0F71570F6539483E0851508F0B6CF03C0B5
S11301B0612C01C0612C862D0F90DF91CF911F918E
S11301C00F91FF90EF90DF90CF90BF90AF909F90F2
S11301D08F907F906F905F9008950F931F93CF93AC
S11301E08C01C62F617002960E944802C1FB6627EB
S11301F060F9C80103960E944802C2FB662760F9B1
S1130200C80104960E944802C3FB662760F9C8012E
S113021005960E944802CF911F910F910895CF93A4
S1130220DF93EC01219661E0CE010E94480200C0F8
S113023000C0000060E0CE010E944802DF91CF912F
S113024008951F93CF93DF930097B1F0162FEC011D
S113025060E00E944802612F62956F70CE010E9497
S1130260ED00CE010E940F01612FCE010E94ED002E
S1130270CE010E940F0101C080E0DF91CF911F9158
S113028008951F93CF93DF93009709F447C0EC01BF
S11302900E94B602CE0101960E94B60210E008C088
S11302A0812F90E002968C0F9D1F0E94B6021F5F63
S11302B01430B0F387E893E10197F1F700C0000030
S11302C068E3CE010E94210181EE94E00197F1F7E9
S11302D000C0000068E3CE010E94210192E39A95D8
S11302E0F1F768E3CE010E94210161E0CE010E9492
S11302F0210162E0CE010E94210166E0CE010E944C
S113030021016CE0CE010E94210168E2CE010E942D
S1130310210160E8CE010E94210101C080E0DF914B
S1130320CF911F9108951F93CF93DF930097B1F05E
S1130330162FEC0161E00E944802612F62956F70F4
S1130340CE010E94ED00CE010E940F01612FCE016B
S11303500E94ED00CE010E940F0101C080E0DF91F8
S1130360CF911F9108950F931F93CF93DF938C0127
S1130370EB01892B51F081E004C02196C8010E9451
S1130380930168816111F9CF01C080E0DF91CF91C1
S11303901F910F910895CF93DF93CDB7DEB72C97BC
S11303A00FB6F894DEBF0FBECDBF8AE690E00E9480
S11303B0410180E690E00E9441008BE0E0EAF0E039
S11303C0DE01119601900D928A95E1F7BE016F5FEF
S11303D07F4F8AE690E00E94B301BE01645F7F4FC5
S11303E080E690E00E9464006C85662351F08AE602
S11303F090E00E94930161E08AE690E00E9421016E
S1130400ECCF64E68AE690E00E949301E6CFFC011B
S1130410892BD1F1208126952695269527708081F8
S113042086FB992790F986FF18C0913079F5E82F5B
S1130430E770F0E0EE0FFF1FE858FF4F0190F081E6
S1130440E02D308181E090E002C0880F991F2A9549
S1130450E2F7832B808381E00895E081E770F0E088
S1130460EE0FFF1FE858FF4F0190F081E02D30811F
S113047081E090E002C0880F991F2A95E2F78095E9
S11304808323808381E0089580E0089580E00895C7
S1130490009709F442C0662309F1613009F03FC0B6
S11304A0FC018081E82FE770F0E0EE0FFF1FE059B8
S11304B0FF4F0190F081E02D4081869586958695C9
S11304C0877021E030E0B90102C0660F771F8A957A
S11304D0E2F7CB01842B808381E00895FC018081C5
S11304E0E82FE770F0E0EE0FFF1FE059FF4F019097
S11304F0F081E02D4081869586958695877021E070
S113050030E0B90102C0660F771F8A95E2F7CB018C
S113051080958423808381E0089580E0089580E0BD
S113052008950097F9F061157105F1F0FC0120813F
S1130530E22FE770F0E0EE0FFF1FE058FF4F01904D
S1130540F081E02D8081269526952695277090E0F0
S113055002C0959587952A95E2F78170FB01808307
S113056081E0089580E0089580E00895CF93DF93BB
S1130570009759F0EC010E940702688167FB662727
S113058060F9CE010E94480201C080E0DF91CF9162
S10905900895F894FFCF6A
S1130596434B535B232B333B0000424A525A626A55
S11305A63B003800350032003A0037003400310091
S11305B63900360033003000413738392A2F4234A7
S11305C635362D45433132332B4644302E3D2B47A9
S10F05D648454C4C4F204C43442100008D
S9030000FC
