S018000041746D65676133325F447269766572732E737265631A
S11300000C943B000C944D000C944D000C944D004A
S11300100C944D000C944D000C944D000C944D0028
S11300200C944D000C944D000C944D000C944D0018
S11300300C94EA030C941D050C944D000C94440597
S11300400C944D000C944D000C944D000C944D00F8
S11300500C944D00D6010702380269029A02CB02C1
S1130060FC022D035E0388039403A003AC03B803CE
S1130070C403D003DC0311241FBECFE5D8E0DEBFE8
S1130080CDBF20E0A0E6B0E001C01D92A636B207C5
S1130090E1F70E9492010C9471050C9400001F93E7
S11300A0CF93DF93C2E6D0E085E0888312E0198322
S11300B0BE0183E390E00E94C60186E08883198331
S11300C0BE0183E390E00E94C60187E08883198320
S11300D0BE0183E390E00E94C60118821983BE0129
S11300E083E390E00E94C60181E088831983BE0106
S11300F083E390E00E94C60118831983BE0183E361
S113010090E00E94C60183E088831983BE0183E3E3
S113011090E00E94C60140E067E083E390E00E9423
S11301207B0340E065E083E390E00E947B0340E0D2
S113013066E083E390E00E947B03DF91CF911F91FF
S1130140089541E067E083E390E00E947B0383EF3E
S113015091E00197F1F700C0000040E067E083E31D
S113016090E00E947B030895CF93C82F84FB44271B
S113017040F960E083E390E00E947B03C5FB4427E1
S113018040F961E083E390E00E947B03C6FB4427CF
S113019040F962E083E390E00E947B034C2F441F0C
S11301A04427441F63E083E390E00E947B0340E024
S11301B066E083E390E00E947B0340E065E083E334
S11301C090E00E947B030E94A1004C2F417060E0EC
S11301D083E390E00E947B03C1FB442740F961E084
S11301E083E390E00E947B03C2FB442740F962E072
S11301F083E390E00E947B03C3FB442740F963E060
S113020083E390E00E947B0340E066E083E390E0B8
S11302100E947B0340E065E083E390E00E947B035F
S11302200E94A100CF91089587E893E10197F1F727
S113023000C000000E944F0085EA9EE00197F1F79C
S113024000C0000082E00E94B40088E20E94B40072
S113025086E00E94B40080E80E94B4008FE00E940F
S1130260B4000895CF93C82F84FB442740F960E07D
S113027083E390E00E947B03C5FB442740F961E0DF
S113028083E390E00E947B03C6FB442740F962E0CD
S113029083E390E00E947B034C2F441F4427441FB8
S11302A063E083E390E00E947B0340E066E083E345
S11302B090E00E947B0341E065E083E390E00E94CC
S11302C07B030E94A1004C2F417060E083E390E027
S11302D00E947B03C1FB442740F961E083E390E083
S11302E00E947B03C2FB442740F962E083E390E071
S11302F00E947B03C3FB442740F963E083E390E05F
S11303000E947B0340E066E083E390E00E947B036D
S113031041E065E083E390E00E947B030E94A1003A
S1130320CF910895CF93DF93CDB7DEB728970FB65B
S1130330F894DEBF0FBECDBF83E38A8383E08B8353
S11303401E8219821C821D8218861F82CE0101968C
S11303500E9414040E94140161E081E40E94FF04DD
S113036061E088E40E94FF0461E08DE40E94FF04E0
S113037061E085E40E94FF0461E084E40E94FF04DC
S113038081E00E940C050E943201FACFCF93DF93E3
S1130390DC01EB01E8814E2F50E04930510508F0B3
S11303A0A7C1FA01E65DFF4F0C946B05898181308A
S11303B091F018F08230E9F09BC111968C9111975D
S11303C08E7F11968C93119712968C9112978E7F33
S11303D012968C938DC111968C9111978E7F1196E4
S11303E08C93119712968C911297816012968C932C
S11303F07FC111968C911197816011968C931197FE
S113040012968C9112978E7F12968C9371C189816A
S1130410813091F018F08230E9F06AC111968C9124
S113042011978D7F11968C93119712968C91129738
S11304308D7F12968C935CC111968C9111978D7F50
S113044011968C93119712968C9112978260129642
S11304508C934EC111968C911197826011968C9356
S1130460119712968C9112978D7F12968C9340C19E
S11304708981813091F018F08230E9F039C1119608
S11304808C9111978B7F11968C93119712968C9166
S113049012978B7F12968C932BC111968C91119786
S11304A08B7F11968C93119712968C91129784607E
S11304B012968C931DC111968C911197846011969C
S11304C08C93119712968C9112978B7F12968C9322
S11304D00FC18981813091F018F08230E9F008C1B0
S11304E011968C911197877F11968C931197129680
S11304F08C911297877F12968C93FAC011968C91E7
S11305001197877F11968C93119712968C9112975D
S1130510886012968C93ECC011968C911197886028
S113052011968C93119712968C911297877F12963D
S11305308C93DEC08981813091F018F08230E9F02B
S1130540D7C011968C9111978F7E11968C93119729
S113055012968C9112978F7E12968C93C9C0119625
S11305608C9111978F7E11968C93119712968C9182
S11305701297806112968C93BBC011968C9111973F
S1130580806111968C93119712968C9112978F7E9D
S113059012968C93ADC08981813091F018F082302D
S11305A0E9F0A6C011968C9111978F7D11968C93CA
S11305B0119712968C9112978F7D12968C9398C0F6
S11305C011968C9111978F7D11968C931197129699
S11305D08C911297806212968C938AC011968C919A
S11305E01197806211968C93119712968C911297A1
S11305F08F7D12968C937CC08981813091F018F0A4
S11306008230E9F075C011968C9111978F7B119609
S11306108C93119712968C9112978F7B12968C93D0
S113062067C011968C9111978F7B11968C931197BB
S113063012968C911297806412968C9359C01196DD
S11306408C911197806411968C93119712968C91CA
S113065012978F7B12968C934BC08981813091F0D5
S113066018F08230E9F044C011968C9111978F777D
S113067011968C93119712968C9112978F771296EC
S11306808C9336C011968C9111978F7711968C9319
S1130690119712968C911297806812968C9328C0A9
S11306A011968C911197806811968C9311971296DC
S11306B08C9112978F7712968C931AC0898181300E
S11306C051F018F0823071F013C011961C921197FA
S11306D012961C920DC011961C9211978FEF1296D0
S11306E08C9306C08FEF11968C93119712961C92DF
S11306F0DF91CF9108950F931F93062F10E00830D8
S1130700110508F064C0F801ED5CFF4F0C946B0513
S1130710442329F0FC0122812160228358C0FC017A
S113072022812E7F228353C0442329F0FC0122819D
S1130730226022834CC0FC0122812D7F228347C08A
S1130740442329F0FC0122812460228340C0FC015F
S113075022812B7F22833BC0442329F0FC01228188
S11307602860228334C0FC012281277F22832FC08A
S1130770442329F0FC0122812061228328C0FC014A
S113078022812F7E228323C0442329F0FC0122816D
S1130790206222831CC0FC0122812F7D228317C08A
S11307A0442329F0FC0122812064228310C0FC012F
S11307B022812F7B22830BC0442329F0FC01228158
S11307C02068228304C0FC0122812F7722831F9199
S11307D00F9108951F920F920FB60F9211242F9329
S11307E03F934F935F936F937F938F939F93AF93B5
S11307F0BF93EF93FF93E0916000F0916100008458
S1130800F185E02D0995FF91EF91BF91AF919F91F3
S11308108F917F916F915F914F913F912F910F90A5
S11308200FBE0F901F901895FC01818189B98BB17F
S11308308D7F8BB98281823029F128F4882341F09D
S1130840813099F045C0833051F18430A9F140C022
S113085080B5806880BD80B58D7F80BD80B58B7F7D
S113086080BD8AB18B7F8AB933C080B5806880BD72
S113087080B5826080BD80B58B7F80BD8AB18B7F5F
S11308808AB926C080B5806880BD80B58D7F80BD63
S113089080B5846080BD8AB18B7F8AB919C080B568
S11308A0806880BD80B5826080BD80B5846080BD75
S11308B08AB18B7F8AB90CC080B5806880BD80B551
S11308C0826080BD80B5846080BD8AB184608AB94D
S11308D08381813071F018F08230A9F01DC080B599
S11308E0806880BD80B58F7E80BD80B58F7D80BDE2
S11308F013C080B5806880BD80B5806180BD80B53F
S1130900806280BD09C080B5806880BD80B58F7E5F
S113091080BD80B5806280BD8481882319F08130D8
S113092041F00DC080B5806880BD80B5877F80BDF3
S113093006C080B5806880BD80B5886080BD808138
S1130940882319F0813041F00DC080B5806880BDE6
S113095080B58F7B80BD06C080B5806880BD80B5C2
S1130960806480BD85818130A1F028F0823009F156
S1130970833079F13DC08AB18F778AB98AB18F7B90
S11309808AB910926500109264008FB78F778FBF79
S11309902FC08AB18F778AB98AB180648AB9868177
S11309A0978190936500809364008FB780688FBFB0
S11309B01FC08AB180688AB98AB18F7B8AB986815F
S11309C0978190936500809364008FB780688FBF90
S11309D00FC08AB180688AB98AB180648AB9868175
S11309E0978190936500809364008FB780688FBF70
S11309F08AB180618AB98AB188608AB90895662308
S1130A0011F05D9BFECF529B05C09AB19E7F9AB9AF
S1130A108CB908958CB90895882311F05F9BFECF9B
S1130A20529B08C02AB180E021FB992790F92CB190
S1130A30822B08958CB190E008951F920F920FB607
S1130A400F9211242F933F934F935F936F937F9350
S1130A508F939F93AF93BF93EF93FF93E0916400C1
S1130A60F09165000995FF91EF91BF91AF919F912E
S1130A708F917F916F915F914F913F912F910F9043
S1130A800FBE0F901F9018951F920F920FB60F92E2
S1130A9011242F933F934F935F936F937F938F937F
S1130AA09F93AF93BF93EF93FF93E0916400F09112
S1130AB065000995FF91EF91BF91AF919F918F913F
S1130AC07F916F915F914F913F912F910F900FBE46
S1130AD00F901F901895EE0FFF1F0590F491E02DD5
S1090AE00994F894FFCF15
S9030000FC
