:100000000C942A000C943F000C943F000C943F0089
:100010000C943F000C943F000C943F000C943F0064
:100020000C943F000C943F000C943F000C943F0054
:100030000C943F000C943F000C943F000C943F0044
:100040000C943F000C943F000C943F000C943F0034
:100050000C943F0011241FBECFE5D8E0DEBFCDBF1A
:1000600010E0A0E6B0E0EAEBF3E002C005900D92EC
:10007000A238B107D9F70E941F010C94DB010C9440
:1000800000000F931F93CF938C01C62F61700296CF
:100090000E947F01C1FB662760F9C80103960E9498
:1000A0007F01C2FB662760F9C80104960E947F01A8
:1000B000C3FB662760F9C80105960E947F01CF91B6
:1000C0001F910F910895CF93DF93EC01219661E08A
:1000D000CE010E947F0100C000C0000060E0CE01A0
:1000E0000E947F01DF91CF9108951F93CF93DF93FB
:1000F0000097B1F0162FEC0160E00E947F01612FA4
:1001000062956F70CE010E944100CE010E94630093
:10011000612FCE010E944100CE010E94630001C008
:1001200080E0DF91CF911F9108951F93CF93DF93CC
:10013000009709F447C0EC010E94C801CE01019666
:100140000E94C80110E008C0812F90E002968C0F39
:100150009D1F0E94C8011F5F1430B0F387E893E130
:100160000197F1F700C0000068E3CE010E9475001E
:1001700081EE94E00197F1F700C0000068E3CE0142
:100180000E94750092E39A95F1F768E3CE010E9410
:10019000750061E0CE010E94750062E0CE010E9410
:1001A000750066E0CE010E9475006CE0CE010E94F1
:1001B000750068E2CE010E94750060E8CE010E94E1
:1001C000750001C080E0DF91CF911F9108951F93CA
:1001D000CF93DF930097B1F0162FEC0161E00E94FE
:1001E0007F01612F62956F70CE010E944100CE01A8
:1001F0000E946300612FCE010E944100CE010E9447
:10020000630001C080E0DF91CF911F9108950F93AB
:100210001F93CF93DF938C01EB01892B51F081E089
:1002200004C02196C8010E94E70068816111F9CFDE
:1002300001C080E0DF91CF911F910F910895CF937E
:10024000DF93CDB7DEB72B970FB6F894DEBF0FBEA6
:10025000CDBF80E690E00E9495008BE0E6E7F0E0FD
:10026000DE01119601900D928A95E1F7BE016F5F54
:100270007F4F80E690E00E940701FFCFFC01892BB1
:10028000D1F120812695269526952770808186FBC1
:10029000992790F986FF18C0913079F5E82FE7701B
:1002A000F0E0EE0FFF1FE259FF4F0190F081E02DCB
:1002B000308181E090E002C0880F991F2A95E2F713
:1002C000832B808381E00895E081E770F0E0EE0FFA
:1002D000FF1FE259FF4F0190F081E02D308181E056
:1002E00090E002C0880F991F2A95E2F7809583233A
:1002F000808381E0089580E0089580E0089500976C
:1003000009F442C0662309F1613009F03FC0FC01E5
:100310008081E82FE770F0E0EE0FFF1FEA59FF4FF2
:100320000190F081E02D40818695869586958770B5
:1003300021E030E0B90102C0660F771F8A95E2F72D
:10034000CB01842B808381E00895FC018081E82F1C
:10035000E770F0E0EE0FFF1FEA59FF4F0190F081C8
:10036000E02D4081869586958695877021E030E066
:10037000B90102C0660F771F8A95E2F7CB0180951D
:100380008423808381E0089580E0089580E00895CB
:10039000CF93DF93009759F0EC010E943E016881F2
:1003A00067FB662760F9CE010E947F0101C080E0F3
:0A03B000DF91CF910895F894FFCF7C
:1003BA00424A525A626A3B003800350032003A001B
:1003CA0037003400310048454C4C4F204C434421FF
:0203DA00000021
:00000001FF
