:100000000C942A000C943F000C943F000C943F0089
:100010000C943F000C943F000C943F000C943F0064
:100020000C943F000C943F000C943F000C943F0054
:100030000C943F000C943F000C943F000C943F0044
:100040000C943F000C943F000C943F000C943F0034
:100050000C943F0011241FBECFE5D8E0DEBFCDBF1A
:1000600010E0A0E6B0E0E0E2F6E002C005900D92FC
:10007000A23AB107D9F70E94D4010C940E030C9454
:1000800000000F931F93CF930097C9F08C01C0E03D
:1000900006C0C8018C0F911D0E94FB02CF5FC430C7
:1000A000C0F3C0E008C08C2F90E00496800F911F31
:1000B0000E94FB02CF5FC430B0F381E001C080E05A
:1000C000CF911F910F9108957F928F929F92AF923F
:1000D000BF92CF92DF92EF92FF920F931F93CF9335
:1000E000DF931F92CDB7DEB7009709F44BC06115BF
:1000F000710509F449C05B017C011982712C01E092
:100100003DC060E0C701810F911D0E948D02082F44
:100110001F5F01C010E01430A0F3872C912C61E028
:10012000C701880D991D0E948D0283ED90E3019710
:10013000F1F700C0000010E01EC0C12ED12CC60196
:100140000496BE016F5F7F4F8E0D9F1D0E94D602E9
:10015000082F8981813071F4C401880F991F880F9D
:10016000991F8A579F4FFC01EC0DFD1D8081F50101
:1001700080830BC01F5F143000F37394F3E0F71516
:1001800048F603C000E001C000E0802F0F90DF912F
:10019000CF911F910F91FF90EF90DF90CF90BF9084
:1001A000AF909F908F907F9008950F931F93CF9360
:1001B0008C01C62F617002960E948D02C1FB6627DA
:1001C00060F9C80103960E948D02C2FB662760F9A0
:1001D000C80104960E948D02C3FB662760F9C8011E
:1001E00005960E948D02CF911F910F910895CF9394
:1001F000DF93EC01219661E0CE010E948D0200C0E8
:1002000000C0000060E0CE010E948D02DF91CF911E
:1002100008951F93CF93DF930097B1F0162FEC0151
:1002200060E00E948D02612F62956F70CE010E9486
:10023000D500CE010E94F700612FCE010E94D500AB
:10024000CE010E94F70001C080E0DF91CF911F91A5
:1002500008951F93CF93DF93009709F447C0EC01F3
:100260000E94FB02CE0101960E94FB0210E008C032
:10027000812F90E002968C0F9D1F0E94FB021F5F52
:100280001430B0F387E893E10197F1F700C0000064
:1002900068E3CE010E94090181EE94E00197F1F735
:1002A00000C0000068E3CE010E94090192E39A9524
:1002B000F1F768E3CE010E94090161E0CE010E94DE
:1002C000090162E0CE010E94090166E0CE010E94B0
:1002D00009016CE0CE010E94090168E2CE010E9492
:1002E000090160E8CE010E94090101C080E0DF91B0
:1002F000CF911F9108951F93CF93DF930097B1F093
:10030000162FEC0161E00E948D02612F62956F70E3
:10031000CE010E94D500CE010E94F700612FCE01D0
:100320000E94D500CE010E94F70001C080E0DF915D
:10033000CF911F9108950F931F93CF93DF938C015B
:10034000EB01892B51F081E004C02196C8010E9485
:100350007B0168816111F9CF01C080E0DF91CF910D
:100360001F910F910895623071F018F4613031F0EF
:1003700019C0633069F0643081F014C06FE7640F16
:100380000E94090108956FEB640F0E94090108950E
:1003900063E9640F0E940901089563ED640F0E94F0
:1003A0000901089581E00895CF93DF93CDB7DEB7BB
:1003B00061970FB6F894DEBF0FBECDBF88E690E020
:1003C0000E94290180E690E00E9441008BE0E6E96E
:1003D000F0E0DE01119601900D928A95E1F7BE01E1
:1003E0006F5F7F4F88E690E00E949B01FE013C9684
:1003F00085E0DF011D928A95E9F700E010E0BE017B
:100400006F5E7F4F80E690E00E946400898990EDE6
:10041000980F9A30D0F57801BFEFEB1AFB0AECE0A9
:10042000F0E0EC0FFD1FE00FF11F8083ECE0F0E047
:10043000EC0FFD1FEE0DFF1D108261E088E690E0DD
:100440000E94090141E061E088E690E00E94B3016A
:10045000BE01645F7F4F88E690E00E949B0184E0CC
:10046000E816F1045CF4870110C0ECE0F0E0EC0F5A
:10047000FD1FE80FF91F1082019602C080E090E096
:100480008530910594F300E010E0A7EAB1E61197FA
:10049000F1F700C00000B3CFFC01892BD1F120811E
:1004A0002695269526952770808186FB992790F9B9
:1004B00086FF18C0913079F5E82FE770F0E0EE0F75
:1004C000FF1FEA58FF4F0190F081E02D308181E05D
:1004D00090E002C0880F991F2A95E2F7832B808352
:1004E00081E00895E081E770F0E0EE0FFF1FEA5829
:1004F000FF4F0190F081E02D308181E090E002C05B
:10050000880F991F2A95E2F780958323808381E0E5
:10051000089580E0089580E00895009709F442C0AE
:10052000662309F1613009F03FC0FC018081E82FAA
:10053000E770F0E0EE0FFF1FE259FF4F0190F081EE
:10054000E02D4081869586958695877021E030E084
:10055000B90102C0660F771F8A95E2F7CB01842BA1
:10056000808381E00895FC018081E82FE770F0E04E
:10057000EE0FFF1FE259FF4F0190F081E02D408107
:10058000869586958695877021E030E0B90102C096
:10059000660F771F8A95E2F7CB01809584238083CD
:1005A00081E0089580E0089580E008950097F9F0D3
:1005B00061157105F1F0FC012081E22FE770F0E098
:1005C000EE0FFF1FE258FF4F0190F081E02D808178
:1005D000269526952695277090E002C095958795DB
:1005E0002A95E2F78170FB01808381E0089580E025
:1005F000089580E00895CF93DF93009759F0EC01C0
:100600000E944C02688167FB662760F9CE010E9458
:100610008D0201C080E0DF91CF910895F894FFCF63
:10062000434B535B232B333B424A525A626A3B0093
:100630003800350032003A0037003400310039000C
:100640003600330030003738392F3435362A31320E
:10065000332D23303D2B48454C4C4F204C434421F7
:02066000000098
:00000001FF
